:100000000C947C110C94070F189518950C94370ECE
:100010000C947A0C189518951895189518951895AC
:100020001895189518951895189518951895189568
:100030001895189518951895189518951895189558
:100040001895189518951895189518951895189548
:100050001895189501000001000001000001000141
:100060000100010101000001000001000001000188
:100070000100010101000001000001000001000079
:100080000100010100010001010100010100000067
:100090000001010001000001010100010100000058
:1000A0000001010001000001010100010100000048
:1000B0000001010001010001000001000100010137
:1000C0000011050C060B01070E0D100402080A09A9
:1000D0000F0301152A3F54697E93A8BDD2E7F5E7C7
:1000E000D2BDA8937E69543F2A150169747F8A9511
:1000F000A2AFBAC6D2DEEAF5EADED2C6BAAFA295A0
:100100008A7F746900000000000101000000010105
:1001100001000000000000000001000000010000DC
:1001200000010101000000010101000000010000C8
:1001300001010000000000010001010000010001B8
:1001400001010000000100010101000001000001A7
:100150000001000101000100000001000000009406
:100160000106005F01680171017A0183018C0100C1
:10017000010084090A00B108C008CF08DE08ED08B4
:10018000FC080B09120919093009010084090A0049
:100190004D09530959095F0965096B097109750909
:1001A00079097F090100FD090A009709A209AD0933
:1001B000B109BC09C709D209D809DE09EE09010055
:1001C000760A0A00100A1B0A260A2A0A350A400A79
:1001D0004B0A510A570A670A0100170B0A00C30AA3
:1001E000CA0AD10AD80AE50AF20AFF0A030B0A0B67
:1001F000110B00E011C020E010E0F801E752FE4FC3
:10020000208310E0F801ED52FE4F208310E0F8014A
:10021000E353FE4F20830395063068F308950E9450
:100220004414380159012A0102C0685671406836E9
:1002300001E07007D0F78B0120E030E00E944E1201
:10024000C801D90140E050E060E772E48C019D01F3
:100250000E947C13C801D9010E94501248018401F8
:1002600020E030E00E944E12A801B9018C019D01EE
:100270000E94E612C801D90140E050E06FE773E444
:100280008C019D010E940313A801B90100E010E058
:100290002FE733E40E94E6120E945012C02E40E085
:1002A00050E06FE773E48C019D010E9403130E94EC
:1002B0005012802F8401ECE5F1E00C9403140FEF51
:1002C000F3010083F501808300E0F20100832CC07C
:1002D000F301C0820FEFF501008300E0F20100831B
:1002E00023C000E0F30100830FEFF5010083F2016A
:1002F00080831AC000E0F3010083F501C0820FEF94
:10030000F201008311C0F301808300E0F501008356
:100310000FEFF201008308C00FEFF301008300E04C
:10032000F5010083F201C082EDE00C945214402FDD
:1003300021E050E006E010E00E94B611F801EC5B0D
:10034000FE4F208320E050E006E010E00E94B6114E
:10035000F801EC5BFE4F238320E050E006E010E064
:100360000E94B611F801EC5BFE4F218350E006E0DD
:1003700010E00E94B611F801EC5BFE4F2283089555
:100380000E944D14802FD901482F50E006E010E064
:100390000E94B611F801EC5BFE4F04811581012B20
:1003A00009F03FC1482F50E006E010E00E94B6116E
:1003B000F801EC5BFE4F0381002309F04EC0082FCB
:1003C000ED91FC9111970995202F482F50E006E000
:1003D00010E00E94B611F801EC5BFE4F2183082F5C
:1003E000FD0122813381F9010995202F482F50E02A
:1003F00006E010E00E94B611F801EC5BFE4F20838E
:10040000482F50E006E010E00E94B611F801EC5BC6
:10041000FE4F2281482F50E006E010E00E94B61106
:10042000F801EC5BFE4F0181201760F421E0482FBA
:1004300050E006E010E00E94B611F801EC5BFE4FC0
:1004400023830BC022E0482F50E006E010E00E941A
:10045000B611F801EC5BFE4F2383482F50E006E015
:1004600010E00E94B611F801EC5BFE4F03810130F1
:1004700009F05FC0482F50E006E010E00E94B6117E
:10048000F801EC5BFE4F228130E0482F50E006E09F
:1004900010E00E94B611F801EC5BFE4F008110E005
:1004A000200F311F203001E03007B8F4482F50E012
:1004B00006E010E00E94B611F801EC5BFE4F2081CF
:1004C000482F50E006E010E00E94B611F801EC5B06
:1004D000FE4F0281020F02830BC02FEF482F50E026
:1004E00006E010E00E94B611F801EC5BFE4F22839B
:1004F000482F50E006E010E00E94B611F801EC5BD6
:10050000FE4F2281482F50E006E010E00E94B61115
:10051000F801EC5BFE4F0181201758F020E0482FD6
:1005200050E006E010E00E94B611F801EC5BFE4FCF
:100530002383482F50E006E010E00E94B611F80136
:10054000EC5BFE4F0381023009F059C0482F50E0A8
:1005500006E010E00E94B611F801EC5BFE4F20812E
:10056000482F50E006E010E00E94B611F801EC5B65
:10057000FE4F02812017B8F4482F50E006E010E04B
:100580000E94B611F801EC5BFE4F2081482F50E02D
:1005900006E010E00E94B611F801EC5BFE4F02810C
:1005A000021B02830BC020E0482F50E006E010E061
:1005B0000E94B611F801EC5BFE4F2283482F50E0F9
:1005C00006E010E00E94B611F801EC5BFE4F2181BD
:1005D000482F50E006E010E00E94B611F801EC5BF5
:1005E000FE4F0281201758F020E0482F50E006E02F
:1005F00010E00E94B611F801EC5BFE4F2383082F38
:10060000FD0124813581F90109959801482F50E0B9
:1006100006E010E00E94B611F801EC5BFE4F248367
:100620003583E4E00C945B14402F50E006E010E0CA
:100630000E94B611F801EC5BFE4F028108950E9402
:100640004D1480E036C0482F50E006E010E00E94D4
:10065000B611F801EC5BFE4F04811581012BE9F422
:1006600090E0FC01E353FE4F008110E0D8010E94AE
:100670007F0749E150E00E94C411485F5F4F8D0140
:100680000E94C41190E0FC01ED52FE4F008300E097
:1006900090E0FC01E752FE4F008320E131E0082F9B
:1006A0006FDE082FC1DF90E0FC01E353FE4F0083B3
:1006B0008395863040F2E4E00C945B140E947F073F
:1006C00046EE50E00E94C411042F075E08950E9478
:1006D0006E0743E050E00E94C411042F0395089573
:1006E000402F50E006E010E00E94B611F801EC5BEC
:1006F000FE4F02810837A8F450E006E010E00E94A7
:10070000B611F801EC5BFE4F0381023051F40E94F8
:100710006E074AE050E00E94C4118A010C5F1F4F2F
:1007200008950E946E0747E050E00E94C4118A01BC
:100730000E5F1F4F08959A938A9380E005C026E1CB
:1007400031E0082F1DDE83958330C8F380E016C0AA
:1007500000E06ADF90E0FC01E353FE4F008301E01C
:1007600063DF90E0FC01ED52FE4F008302E05CDFAE
:1007700090E0FC01E752FE4F00838395863040F302
:10078000899199910895002389F40E947F0748E692
:1007900051E00E94C411BA0142EB51E021EB31E07B
:1007A00000EB11E03CDD0091B0010895013019F437
:1007B0000091B1010895023019F40091B201089539
:1007C00001E0089501E008950E947F074AEF50E09C
:1007D0000E94C4118A010C591F4F08959A938A935D
:1007E00080E009C02CE131E090E0FC01E054FF4FD3
:1007F0000491C6DD83958231A8F380E01EC003E03A
:10080000809F002D11DF90E0FC01E353FE4F008339
:1008100003E0809F002D039507DF90E0FC01ED527F
:10082000FE4F008303E0809F002D0E5FFDDE90E011
:10083000FC01E752FE4F00838395863000F38991D7
:10084000999108950E944914402E43E0042D0E947E
:10085000A8114423D1F50E947F0748E651E00E9489
:10086000C411BA01CB0143E0042D0E94A81110E08D
:100870004FEB51E0400F511FBC01CA01DB0143E0C7
:10088000042D0E94A81110E029EB31E0200F311F48
:10089000BD01AC01C901DA013B0143E0042D0E9416
:1008A000A811202F30E003EB11E0020F131FB3015A
:1008B000AD019C01B4DC43E0042D0E94A81110E0BE
:1008C000F801ED54FE4F008121C043E0042D0E9449
:1008D000A811413051F443E0042D0E94A81110E00A
:1008E000F801E754FE4F008111C043E0042D0E943F
:1008F000A811423051F443E0042D0E94A81110E0E9
:10090000F801E154FE4F008101C001E0E8E00C94E1
:1009100057140E946E0745E050E00E94C411042F56
:10092000039508950E947F0742E350E00E94C4119E
:100930008A010C5E1F4F08959A938A9380E005C048
:1009400022E231E0082F1CDD83958231C8F380E07C
:100950001EC003E0809F002D67DE90E0FC01E353A2
:10096000FE4F008303E0809F002D03955DDE90E045
:10097000FC01ED52FE4F008303E0809F002D0E5FCF
:1009800053DE90E0FC01E752FE4F008383958630F2
:1009900000F38991999108958A932397802F00E01D
:1009A0000A8300E0098300E00883882341F4E5EC32
:1009B000F1E0008111810F5F1F4F008311830091CF
:1009C000C5011091C601043F21E01207A8F100E023
:1009D00010E00093C5011093C6010E947F0748E60E
:1009E00051E00E94C411BA01AE019E012F5F3F4F3A
:1009F0008E010E5F1F4F13DC41E113C050E006E093
:100A000010E00E94B611F801ED5CFE4F208150E02D
:100A100006E010E00E94B611F801EC5BFE4F218366
:100A20004A95433058F70A810093450109810093A4
:100A30004B01088100935101482F50E006E010E07F
:100A40000E94B611F801EC5BFE4F0181239689915B
:100A5000089503E008950AE010E008959A938A93B8
:100A600080E005C028E231E0082F8ADC83958231DE
:100A7000C8F380E01EC003E0809F002DD5DD90E02C
:100A8000FC01E353FE4F008303E0809F002D03959C
:100A9000CBDD90E0FC01ED52FE4F008303E0809F30
:100AA000002D0E5FC1DD90E0FC01E752FE4F008398
:100AB0008395863000F3899199910895013059F416
:100AC00000914101039500934101023188F000E05B
:100AD00000934101089500914101002321F401E1B7
:100AE000009341010895009141010A95009341014D
:100AF00008950E944E14A02F9091E70185E043E0F5
:100B00000A2F0E94A811801B482F01E010E00E94CC
:100B1000BE1190239923B9F043E00A2F0E94A81137
:100B200050E002E110E00E94B611E4E5F0E0E00FD1
:100B3000F11F0091410110E0E00FF11F14910FEF40
:100B4000109F002D17C08AE890E00091410110E04D
:100B5000800F911F43E00A2F0E94A81150E002E18C
:100B600010E00E94B611800F911FFC0114910FEF4D
:100B7000109F002DE3E00C945C1401E0089500E068
:100B800010E008950023C1F00091C7011091C80141
:100B9000043621E0120738F000E010E00093C701AE
:100BA0001093C8011EC0E7ECF1E0008111810C5FD9
:100BB0001F4F0083118315C0E091C701F091C80158
:100BC000359738F408E611E00093C7011093C80187
:100BD00008C0E7ECF1E0008111810450104000836F
:100BE00011836091C7017091C80140E451E02FE387
:100BF00031E00EE311E013DB08958A930091430185
:100C0000002321F50E946E0745E050E00E94C411C8
:100C10004093C9010091C901043041F40E947F074B
:100C200042E150E00E94C411409341010E947F07BD
:100C3000980142E050E00E949811802F42E350E07A
:100C400089010E94C411840F809343010091C9015E
:100C5000005049F00A9549F00A9549F00A9549F083
:100C60000A9549F009C0EBDC07C065DD05C0B6DDBB
:100C700003C062DE01C0F2DE899108950091430154
:100C8000002329F0009143010A9500934301089540
:100C900000914201039500934201073018F000E0F3
:100CA000009342010091420110E00E9439100E941D
:100CB000C910089500914201005069F00A9569F049
:100CC0000A9569F00A9569F00A9569F00A9569F044
:100CD0000A9569F0089591DF0895B1DC08952CDE3E
:100CE0000895BCDE08957ADD089525DD089500E0BD
:100CF00016C020913E0110E0F801E353FE4F20831F
:100D000020913F0110E0F801ED52FE4F2083209129
:100D1000400110E0F801E752FE4F208303950630B2
:100D200040F308950091420108959A938A93902F79
:100D30004AE0092F0E94A811802F8295807F4AE007
:100D4000092F0E94A811842B082F89919991089549
:100D5000202F22952F701AE0219F0F70000E002D7A
:100D6000089534EA36BF36B7432F47FFFCCF000F54
:100D700003B904E806BF06B7302F37FFFCCF13B91D
:100D800004E806BF06B7102F17FFFCCF23B904E80D
:100D900006BF06B7102F17FFFCCF04E906BF089562
:100DA00024EA26BF26B7322F37FFFCCF000F03B946
:100DB00004E806BF06B7202F27FFFCCF13B904E8CD
:100DC00006BF06B7102F17FFFCCF04E906BF089532
:100DD00014EA16BF16B7212F27FFFCCF000F0160C2
:100DE00003B904E806BF06B7102F17FFFCCF04E8CD
:100DF00006BF06B7102F17FFFCCF03B114E916BFCB
:100E0000089500EC00B900E001B920E117E008E620
:100E1000A8DF08950E944B142801D901CA0110E0EF
:100E200008E6BEDF08E6D4DF93DFFC01008308E6B6
:100E3000CFDF8EDF0C9308E6CBDF8ADFF201008381
:100E4000E6E00C9459140E944B142801D901CA0100
:100E500014E008E6A5DF08E6BBDF7ADFF2010083D5
:100E600008E6B6DF75DFFD01008308E6B1DF70DF5D
:100E7000FC010083E6E00C9459149A938A93802F26
:100E8000912F022F52DF202F10E008E66ADF092F92
:100E90004CDF202F11E008E664DF082F46DF202F0B
:100EA00012E008E65EDF8991999108959A938A93FA
:100EB000812F922F3ADF202F14E008E652DF082F0F
:100EC00034DF202F15E008E64CDF092F2EDF202F1E
:100ED00016E008E646DF8991999108959A938A93DE
:100EE00084B190E015B100E0802B912B369A0E94DE
:100EF0006614800F911F8C018991999108959A939E
:100F00008A9344B150E015B100E0402B512B369A42
:100F1000349BFECF24B0332415B100E0202A312ABF
:100F2000369A349BFECF64B170E015B100E0602BBF
:100F3000712B369A349BFECFE4B1F0E015B100E09E
:100F4000E02BF12B369A349BFECF08EE13E00E9483
:100F5000B611980104E610E0A1010E94B611200F1D
:100F6000311F0AE010E0AB010E94B611200F311FC3
:100F70002E0F3F1FC9010E946614800F911F8C0124
:100F80008991999108950FEE0ABB0BE007BB0FEF13
:100F900004BB0BE701BB04E002BB04E407B907E8AC
:100FA00006B900E000BF03B7096603BF0FB5016AC9
:100FB0000FBD0EB509600EBD05B5036005BD09B7CF
:100FC000006C09BF03E005BF00E40BBF0E940107EE
:100FD00096DF0E94A51440E050E00E949811023074
:100FE00028F000E040E050E00E94A41141E050E011
:100FF0000E949811023028F000E041E050E00E9489
:10100000A41142E050E00E949811043628F00AE052
:1010100042E050E00E94A41143E050E00E94981189
:10102000063028F000E043E050E00E94A41143E0C5
:1010300050E00E949811009342014AEE51E029EEDF
:1010400031E008EE11E00E94230747EE51E026EE62
:1010500031E005EE11E00E940A0700E01091E8017E
:10106000103220F011E01093E80103951091E9018E
:101070001D3020F011E01093E90103951091EA0171
:10108000143620F010E01093EA010395002341F09C
:101090002091EA011091E9010091E8010E945607B0
:1010A00000E01091E501193120F010E01093E50106
:1010B00003951091E6011C3320F010E01093E60137
:1010C00003951091E7011C3320F010E01093E70125
:1010D0000395002341F02091E7011091E601009172
:1010E000E5010E943D070E94F9000FEF14E32CE098
:1010F000015010402040E1F700C0000078940895AE
:10110000AE98DD980E94F9004AEE51E029EE31E0F8
:1011100008EE11E00E94230700E007C02AE010E07B
:10112000F801EC5CFE4F208303950630B8F3209164
:10113000EA011091E9010091E8010E947C0F0FE79C
:101140001DE82BE5015010402040E1F700C00000F1
:101150000895829B9CC00091CA01E0E7F1E00C94E5
:10116000FF134AE00091E5010E94A81100932E01AF
:101170004AE00091E5010E94A81140932F01C4C0EC
:101180004AE00091E6010E94A811009330014AE074
:101190000091E6010E94A81140933101B5C04AE0D8
:1011A0000091E7010E94A811009332014AE00091EA
:1011B000E7010E94A81140933301A6C04AE00091C4
:1011C000E8010E94A81100932E014AE00091E80175
:1011D0000E94A81140932F0197C04AE00091E901B5
:1011E0000E94A811009330014AE00091E9010E9499
:1011F000A8114093310188C04AE00091EA010E94A1
:10120000A811009332014AE00091EA010E94A8115E
:101210004093330179C040E050E00E949811009360
:101220002E0172C041E050E00E94981100932F01FE
:101230006BC04AE0142F43E050E00E949811412F08
:101240000E94A811009330014AE0142F43E050E0BF
:101250000E949811412F0E94A8114093310154C05F
:101260004AE0142F42E050E00E949811412F0E9462
:10127000A811009332014AE0142F42E050E00E948E
:101280009811412F0E94A811409333013DC0009155
:10129000CA01EAE8F1E00C94FF130AE000932F0181
:1012A00000932E0131C00AE0009331010093300118
:1012B0002BC00AE0009333010093320125C00AE0FD
:1012C00000932F0100932E011FC00AE0009331010B
:1012D0000093300119C00AE00093330100933201FA
:1012E00013C00AE000932E010FC00AE000932F0103
:1012F0000BC00AE0009331010093300105C00AE001
:101300000093330100933201EFEDF1E0008102FF21
:1013100074C005E00093E201EFEDF1E000810B7F86
:1013200000830091CA01E4EAF1E00C94FF130091FC
:10133000E50103950093E501083118F000E0009302
:10134000E5015BC00091E60103950093E6010C33D3
:1013500018F000E00093E60150C000E00093E701C0
:101360004CC00091E80103950093E801003218F0A9
:1013700001E00093E80141C00091E9010395009369
:10138000E9010D30D0F101E00093E90136C0009190
:10139000EA0103950093EA01043678F100E0009336
:1013A000EA012BC001E040E050E00E94A41125C0FA
:1013B00001E041E050E00E94A4111FC043E050E072
:1013C0000E9498110630C8F443E050E00E94981142
:1013D000039543E050E00E94A4110FC042E050E0AA
:1013E0000E949811033648F442E050E00E949811A0
:1013F000039542E050E00E94A411EFEDF1E000817E
:1014000001FF74C005E00093E101EFEDF1E0008120
:101410000D7F00830091CA01EEEBF1E00C94FF1305
:101420000091E5010A950093E501083118F007E104
:101430000093E50108950091E6010A950093E60105
:101440000C3318F00BE30093E601089500E00093DD
:10145000E70108950091E8010A950093E801013041
:1014600018F40FE10093E80108950091E9010A954D
:101470000093E9010130D0F50CE00093E9010895F3
:101480000091EA010A950093EA01043678F100E040
:101490000093EA01089500E040E050E00E94A411AA
:1014A000089500E041E050E00E94A411089543E057
:1014B00050E00E9498110130C8F043E050E00E94D3
:1014C00098110A9543E050E00E94A411089542E06B
:1014D00050E00E9498110B3048F042E050E00E942A
:1014E00098110A9542E050E00E94A4110895EFED92
:1014F000F1E0008100FF0EC00091CA01002351F409
:1015000005E00093E001EFEDF1E000810E7F008344
:101510000E944806EFEDF1E0008100FF2BC1009131
:10152000CA01002309F426C105E00093E001EFEDB4
:10153000F1E000810E7F00830091CA01043040F485
:101540002091E7011091E6010091E5010E943D071D
:101550000091CA01043060F00091CA01073040F4E4
:101560002091EA011091E9010091E8010E945607DB
:101570000E94F9000091CA0103950093CA01E8EDA9
:10158000F1E00C94FF130FEF0093D9010FEF0093DC
:10159000DA014DC00FEF0093D5010FEF0093D60194
:1015A00046C00FEF0093D1010FEF0093D2013FC06F
:1015B0000FEF0093D9010FEF0093DA010FEF0093C3
:1015C000CD010FEF0093CE0132C00FEF0093D50194
:1015D0000FEF0093D6010FEF0093CF010FEF0093B1
:1015E000D00125C00FEF0093D7010FEF0093D80172
:1015F0000FEF0093DD010FEF0093DE0118C00FEF36
:101600000093D90114C00FEF0093CE010FEF0093A8
:10161000D4010DC00FEF0093CF010FEF0093D00165
:1016200006C00FEF0093DD010FEF0093DE01009184
:10163000CA01043050F54AE00091E5010E94A8116A
:1016400000932E014AE00091E5010E94A811409309
:101650002F014AE00091E6010E94A8110093300199
:101660004AE00091E6010E94A811409331014AE04E
:101670000091E7010E94A811009332014AE0009115
:10168000E7010E94A811409333010091CA01043080
:1016900070F10091CA01073050F54AE00091E8016D
:1016A0000E94A81100932E014AE00091E8010E94D7
:1016B000A81140932F014AE00091E9010E94A8116E
:1016C000009330014AE00091E9010E94A811409383
:1016D00031014AE00091EA010E94A8110093320111
:1016E0004AE00091EA010E94A81140933301009161
:1016F000CA010730C0F140E050E00E949811009309
:101700002E0141E050E00E94981100932F014AE021
:10171000142F43E050E00E949811412F0E94A8111D
:10172000009330014AE0142F43E050E00E949811EA
:10173000412F0E94A811409331014AE0142F42E04A
:1017400050E00E949811412F0E94A811009332018D
:101750004AE0142F42E050E00E949811412F0E946D
:10176000A811409333010091CA010B3018F000E03A
:101770000093CA01EFEDF1E0008101FF2EC000915E
:10178000CA01002351F50AE00093E101EFEDF1E019
:1017900000810D7F00830E949206005069F00A9537
:1017A00069F00A9569F00A9569F00A9579F00A9549
:1017B00079F00A9579F011C0A3DC0FC0A1DC0DC04F
:1017C0009FDC0BC000E00E945E0507C099DC05C0ED
:1017D00097DC03C000E00E94C205EFEDF1E000815C
:1017E00002FF2EC00091CA01002351F50AE00093C8
:1017F000E201EFEDF1E000810B7F00830E94920691
:10180000005069F00A9569F00A9569F00A9569F047
:101810000A9579F00A9579F00A9579F0089570DCC7
:1018200008956EDC08956CDC089501E00E945E0569
:10183000089566DC089564DC089501E00E94C20505
:1018400008958A93A0DB80E004C0082F0E949701CE
:1018500083958231D0F30091CB01002371F001E038
:101860000093CA0100E00093CB010E94F9000FEF42
:101870000093D9010FEF0093DA010091CC0100230E
:10188000E9F00091CA010023C9F400E00093CC0103
:1018900047EE51E026EE31E005EE11E00E940A0726
:1018A0002091E7011091E6010091E5010E94110FDE
:1018B00000914201002311F40E943E060091CA01EA
:1018C000002309F046DC0091CA01002311F40E94B4
:1018D0005A060DDE0091CA01002349F441E050E0B0
:1018E0000E949811002319F0AE9ADD9AB4CFAE98F9
:1018F000DD98B1CFFA93EA931A920A926A935A93B7
:101900004A933A932A931A930A936FB705B30861DF
:1019100005BB05B30B7D05BB0BB306600BBB0BB35F
:10192000067F0BBB0091E40110E0F801EC5CFE4F78
:10193000008103BD0091F201093108F052C000910D
:10194000F30103950093F301023308F44AC000E069
:101950000093F30120E01FC00091F20110E0F801B4
:10196000E551FF4F049130E0F901EC5CFE4F00833C
:101970000091F2010C3071F40091CA01002351F47E
:1019800030E0F901E551FE4F008130E0F901E25D00
:10199000FE4F008323952630F8F43091F101422F59
:1019A00001E010E00E94BE113023332321F40091A6
:1019B000F2010023E9F60091E501083068F2009198
:1019C000F20110E0F801EE52FF4F049130E0F9010E
:1019D000EC5CFE4F0083CCCF0091F20103950093A5
:1019E000F2010091F40103950093F4010730F8F13E
:1019F00000E00093F401C198C098DE98AF989698E3
:101A000093980091E301005059F00A9559F00A9516
:101A100059F00A9559F00A9559F00A9559F00BC0FA
:101A2000939A09C0969A07C0AF9A05C0DE9A03C080
:101A3000C09A01C0C19A0091E30110E0F801E3539C
:101A4000FE4F008110E01BBD0ABD0091E30110E0D4
:101A5000F801ED52FE4F00810CBF0091E30110E050
:101A6000F801E752FE4F008110E019BD08BDBC9A95
:101A7000C498BC9805E00A95F1F7B49909C0E5EF60
:101A8000F1E0008111810F5F1F4F008311832FC090
:101A90000091F5011091F601093E23E0120780F054
:101AA000EFEDF1E000810E7F008300E00093E001A4
:101AB00010E00093F5011093F60101E00093CB01D3
:101AC0000091F5011091F601095C10400F3123E0FF
:101AD000120768F4EFEDF1E000810160008300E09F
:101AE0000093E00110E00093F5011093F6018F9A46
:101AF00097988F9805E00A95F1F7879909C0E5EF67
:101B0000F1E0028113810F5F1F4F0283138308C02E
:101B100000E00093E10110E00093F7011093F80159
:101B20000091F7011091F801063920E0120759F4ED
:101B3000EFEDF1E000810260008300E010E000932F
:101B4000F7011093F801BA9AC298BA9805E00A957D
:101B5000F1F7B29909C0E5EFF1E0048115810F5F5B
:101B60001F4F0483158308C000E00093E20110E0DA
:101B70000093F9011093FA010091F9011091FA0113
:101B8000063920E0120759F4EFEDF1E0008104601E
:101B9000008300E010E00093F9011093FA0120E0C7
:101BA00013C030E0F901E052FE4F0081002359F0EC
:101BB000422F01E010E00E94BE1100951091DF015C
:101BC00010231093DF012395233058F30091FB017C
:101BD00003950093FB01003FF0F000E00093FB0150
:101BE0000091E001002329F00091E0010A950093A3
:101BF000E0010091E101002329F00091E1010A9543
:101C00000093E1010091E201002329F00091E2013B
:101C10000A950093E20140E01BC050E006E010E0AE
:101C20000E94B611F801EC5BFE4F04811581012B77
:101C300071F050E006E010E00E94B611F801EC5B94
:101C4000FE4F048115810150104004831583439594
:101C5000423118F36FBF0991199129913991499136
:101C60005991699109901990E991F9911895FA9310
:101C7000EA932A931A930A932FB70091E301002362
:101C800021F00091E301033019F4919A9098DF98C4
:101C90000091E301013021F00091E301043019F4D7
:101CA0009198909ADF980091E301023021F0009121
:101CB000E301053019F491989098DF9A0091E401BE
:101CC000033008F041C00091E40110E0F801E25D4A
:101CD000FE4F008110E0F801EC5FFE4F049100FB25
:101CE00005B304F905BB0091E40110E0F801E25DE1
:101CF000FE4F008110E0F801E65EFE4F049100FB0C
:101D000005B302F905BB0091E40110E0F801E25DC2
:101D1000FE4F008110E0F801E05DFE4F049100FBF2
:101D200005B303F905BB0091E40110E0F801E25DA1
:101D3000FE4F008110E0F801EA5BFE4F049100FBCA
:101D400005B305F905BB40C00091E40110E0F801BE
:101D5000E25DFE4F008110E0F801E15FFE4F04916B
:101D600000FB0BB301F90BBB0091E40110E0F8019B
:101D7000E25DFE4F008110E0F801EB5DFE4F049143
:101D800000FB0BB303F90BBB0091E40110E0F80179
:101D9000E25DFE4F008110E0F801E55CFE4F04912A
:101DA00000FB0BB302F90BBB0091E40110E0F8015A
:101DB000E25DFE4F008110E0F801EF5AFE4F049102
:101DC00000FB0BB300F90BBB0091E30103950093FB
:101DD000E301063019F400E00093E3010091E30110
:101DE000033020F40091E3010093E4010091E3014A
:101DF000033030F008E01091E301011B0093E4018F
:101E00002FBF099119912991E991F99118951A9388
:101E10000A931FB701E00093CC011FBF09911991EC
:101E200018950E944E14802F912FA22F0091CA0165
:101E3000002309F05BC040E050E00E9498110023AD
:101E400031F48A3020F40AE00093EB0106C04AE046
:101E5000082F0E94A8110093EB014AE0082F0E946E
:101E6000A8114093EC014AE0092F0E94A8110093A9
:101E7000ED014AE0092F0E94A8114093EE014AE0CB
:101E80000A2F0E94A8110093EF014AE00A2F0E9436
:101E9000A8114093F00120E00CC0422F01E010E0B7
:101EA0000E94BE1100951091F10110231093F101D1
:101EB00023952630B8F430E0F901E551FE4F00815A
:101EC00030E0F901E25DFE4F1081011731F3422F3E
:101ED00001E010E00E94BE111091F101102B10934F
:101EE000F101E6CF00E00093F20103C000E00093AF
:101EF000F101E3E00C945C140E944E142697A02F8D
:101F0000812F922F0E94F9004AE00A2F0E94A81107
:101F10000093EB014AE00A2F0E94A8114093EC01C4
:101F20004AE0082F0E94A8110093ED014AE0082F13
:101F30000E94A8114093EE014AE0092F0E94A811C7
:101F40000093EF014AE0092F0E94A8114093F0018D
:101F500020E04FC04FE35DE063E0415050406040FF
:101F6000E1F700C000000395093008F041C0FE0110
:101F700030E0E20FF31F1081123099F430E0F901E4
:101F8000E25DFE4F108130E0F901E551FE4F3081F6
:101F9000131739F030E0F901E25DFE4F108113951F
:101FA0001083FE0130E0E20FF31F1081133099F42B
:101FB00030E0F901E25DFE4F108130E0F901E551BA
:101FC000FE4F3081131739F030E0F901E25DFE4F2A
:101FD00010811A95108330E0F901E25DFE4F108107
:101FE00030E0F901E551FE4F3081131709F0B2CF0F
:101FF00023952630D0F530E0F901E25DFE4F0081F7
:1020000030E0F901E551FE4F1081011780F402E044
:10201000FE0130E0E20FF31F0083422F01E010E0E9
:102020000E94BE111091F101102B1093F10130E0CC
:10203000F901E551FE4F008130E0F901E25DFE4F0C
:102040001081011780F403E0FE0130E0E20FF31F7E
:102050000083422F01E010E00E94BE111091F101B7
:10206000102B1093F10100E07FCF2696E3E00C9453
:102070005C140E944D14D8010E94F90005E026C0AE
:10208000F89410912F0110932E01109130011093AC
:102090002F011091310110933001109132011093F2
:1020A000310110913301109332012AE010E0F80160
:1020B000E25DFE4F208378944FE35DE063E04150A2
:1020C00050406040E1F700C000000A950130C0F6C2
:1020D0000AE000932E0180E04DC0F89448EE53E0F2
:1020E0008D010E94C411202F082F10E01195019539
:1020F0001040F801E25DFE4F258344E650E08D017B
:102100000E94C4114AE050E00E94C411082F10E060
:10211000119501951040F801E25DFE4F46834AE0BB
:1021200050E08D010E94C4114AE050E00E94C411A9
:10213000082F10E0119501951040F801E25DFE4F67
:1021400047834AE050E08D010E94C411082F10E03F
:10215000119501951040F801E25DFE4F408778949B
:102160000FE31DE023E0015010402040E1F700C0E4
:1021700000008395843008F4B0CF0FEF14E32CE017
:10218000015010402040E1F700C00000E4E00C9452
:102190005B1423970E94F90000912E01002349F55A
:1021A00000E0063008F049C010913201109333016D
:1021B00010913101109332011091300110933101CF
:1021C00010912F011093300110912E0110932F01C7
:1021D0002AE010E0F801E25DFE4F20834FE35DE06E
:1021E00063E0415050406040E1F700C000000395BB
:1021F000D8CF00E020C0109132011093330110912C
:10220000310110933201109130011093310110917E
:102210002F01109330012AE010E0F801E25DFE4F3B
:1022200020834FE35DE063E0415050406040E1F7C0
:1022300000C0000003950430F0F2AE019E012F5F54
:102240003F4F8E010E5F1F4F0E940A074AE00A812E
:102250000E94A8110093EB014AE00A810E94A81194
:102260004093EC014AE009810E94A8110093ED011E
:102270004AE009810E94A8114093EE014AE00881DA
:102280000E94A8110093EF014AE008810E94A81162
:102290004093F00120E029C0009132010093330106
:1022A000009131010093320100913001009331011E
:1022B00000912F010093300100912E0100932F0116
:1022C000022F10E0119501951040F801E551FE4FE5
:1022D000058100932E014FE35DE063E041505040E3
:1022E0006040E1F700C0000023952630A8F2239655
:1022F000089500008895FECF0FE00DBF01E00EBFEE
:10230000C0ECD0E00E946414002311F00E948B14F2
:102310000E94210C0E9479110C947911E199FECF51
:1023200008954F5F5F4FFADF4EBB5FBBE09A0895A1
:10233000FADF0DB308954F5F5F4F4EBB5FBBF8945C
:10234000E29AE19A0FBE08950FB6E8DF0DBBF5CF14
:102350000024E8E0EA9532F0001F001C0416D0F3D8
:10236000041AF8CF001F402D00950895149F102DDA
:10237000059F100D049F002D110D08954A951AF028
:10238000000F111FFBCF089500241124EFE0001F60
:10239000111F001C111C0416150610F0041A150A52
:1023A000EA95AAF7001F111FA00100951095089546
:1023B0002224349F302D259F300D169F300D079F0E
:1023C000300D249F202D310D159F200D311D069FAE
:1023D000200D311D149F102D210D321D059F100D54
:1023E000211D321D049F002D110D221D321D089547
:1023F0004A952AF03695279517950795F9CF0895B0
:1024000030952095109501951F4F2F4F3F4F089500
:10241000FF27112477FB660F771F089409F4771FB5
:10242000679517F8EE27002437FB220F331F089417
:1024300009F4331F279507F8089527FD0EC0EE0F06
:10244000001F111F221F3A953230B8F7332319F4B9
:1024500027FD31E002C027FF30E0E03821F400FF23
:1024600008940EF488940F4F1F4F2F4F3F4F323078
:1024700038F4332319F427FD31E002C027FF30E0A0
:102480003F3F29F0220F000C379527950895A7C0EC
:10249000E02F012F122F232F3EE9D6CF0024F8CFB3
:1024A000C1DF432F4F5748F04F3148F007FC91C030
:1024B0003FE72FEF1FEF0FEF089533278CC0322F28
:1024C000212F102F0E2F4F5141950E94F81107FE1A
:1024D00008950C940012F901EE0FFF1F37FBFF3F28
:1024E00031F0EF2BE12BE02B8894B8940895E02B8A
:1024F000E12B21F008949894B894089598948894C6
:1025000038940895FB01EE0FFF1F77FBFF3F31F07A
:10251000EF2BE52BE42B8894B8940895E42BE52B5E
:1025200069F3E8CFEFDF68F021F43723262F8A0123
:102530000895372FFBCFE6DF20F00BF008957327C7
:10254000EAF751C0C8DFE8F3B3F361F3DBDFC8F3A8
:1025500083F3A1F35DDF401751076207730731F47E
:10256000011411F10024E89488942BC078F0332EE4
:10257000372F732D322E262F632D312E152F532DED
:10258000302E042F432D302C012C132C371739F00B
:10259000669557954795F795E0407395F7CFE7FB1C
:1025A000EE0FE0E010246AF0EF0F041F151F261F46
:1025B00060F4279517950795E79508F46894339587
:1025C00043CFEF0B040B150B260B3ECFE0E87E2725
:1025D000B9CF302D307822271127002708953FE703
:1025E000302920E8F9CF3FEF2FEFF6CF8BDFD8F37C
:1025F000D1F370783727089585DFA8F3A3F3F9CFD7
:102600003078372793CF67DF70F383F3A9F37ADF4E
:1026100050F3B3F3A9F3FCDE0124E8943F57E04004
:10262000370FEF1F12F0D9F603C03A3E90F26894CC
:10263000E0E00A92AA933A93AA273324222433276C
:10264000049FF001059FF00D712D731F149FF00D75
:10265000711D221C069F700D211C331C159F700DCF
:10266000211C331E249F700D211C331E169F200C2D
:10267000311CAA1F259F200C311CA31F269F300C44
:10268000A11D39915EF43395A695379427947795DB
:10269000F795E79533953130BCF316C0AA2322F0A5
:1026A000332351F4339510C0339571F4A9910990F7
:1026B00096CFA7FD09C03A95EE0FFF1F771F221C8A
:1026C000331CAA1F3230A8F7E894FE2B09F0689457
:1026D0002A2F8101E72FA9910990BFCE13DF10F0B7
:1026E0000BF087CF80CF0EDFE9F3E0F3032E072650
:1026F00070CF032E072673CFEEDEA0F37BF399F3A2
:1027000001DF80F39BF3A9F383DE012427FD06C0DC
:10271000000F111F221F3150E040F8CF67FD06C0A7
:10272000440F551F661F7150F040F8CFE894371BD7
:10273000EF0B3158EF4F2AF0EE23E9F63F3FD9F285
:1027400003C03A3EA8F26894E0E0F0E0112413944C
:1027500040175107620738F0315008F46894000FB1
:10276000111F221FEE1F041B150B260BEF0B000F72
:10277000111F221FEE1F0A9279E17A95AAF0041721
:1027800015072607EF0730F0041B150B260BEF0B80
:10279000089401C08894111C221C331C001C000FDB
:1027A000111F221FEE1FE9CFF0F9E894E22BE12B75
:1027B000E02B09F068940694379427941794E795D2
:1027C00008F468947395B9F30990332311F0F0FF7E
:1027D00009C0369427941794E79508F468943395C4
:1027E0003130BCF3012D122D232D37CE759165911B
:1027F00055914591159011FA259035900895F9DF7E
:10280000041B10E003C0F4DF041B150B20E030E0D4
:1028100005C0ECDF041B150B260B370BB8F010FCC2
:1028200017C045910590E00FF11F0417100540E017
:102830002407340758F436F404910024F101E01B16
:10284000F0090994E00FF11F25903590F1010994EA
:1028500011F4D6F7F1CF31960EF0319650E060E0EA
:1028600070E045914B3F48F089F34F3F29F04E3FD0
:1028700011F07591659155914591041B150B260B2F
:10288000370B39F318F3E7CFCA92BA92AA929A9209
:102890008A927A926A925A924A92BA93AA939A9395
:1028A0008A930895CC84BB84AA84998488847F8089
:1028B0006E805D804C80BB81AA8199818881F0E027
:1028C000EC0FFD1FEF01089501E008954DE65EE471
:1028D00066EC71E4EAE3F1E0008111812281338149
:1028E0000E94D811075C1F4C2F4F3F4F008311836C
:1028F0002283338389011F77089520E006D0E9F70A
:102900000895259102D0E9F708952D9301501040C4
:10291000202F212B08958AE599E2FC01059114915D
:10292000FC013296A591B491FC0134962591349125
:10293000422F432B19F0F901E4DF01C0DEDF0696D8
:1029400019E28636910748F3089520E0EAE3F1E0C2
:1029500000831183228323830895BE003E0100007B
:102960002E00100166295E0367037003C303E203B0
:10297000E403220489049204CC0429052B0579057B
:10298000BD05BF050A0A0A0A0A0A01000000000084
:042990000100000042
:00000001FF
:00000001FF
